:020000040000FA
:03000000020800F3
:10080000787FE4F6D8FD75812002084702088CE461
:1008100093A3F8E493A34003F68001F208DFF48089
:1008200029E493A3F85407240CC8C333C4540F44D9
:1008300020C8834004F456800146F6DFE4800B01B3
:10084000020408102040809009B9E47E019360BC46
:10085000A3FF543F30E509541FFEE493A360010E4B
:10086000CF54C025E060A840B8E493A3FAE493A372
:10087000F8E493A3C8C582C8CAC583CAF0A3C8C593
:1008800082C8CAC583CADFE9DEE780BE12095A43BF
:10089000E34020821274E8250CF50C7403350BF547
:1008A0000BC294D28280132083107418250CF50C8F
:1008B00074FC350BF50BC295D283E4FD7F0312085F
:1008C000E67D017F011208E67D027F011208E67DC8
:1008D000047F011208E67D087F011208E6E4FD7F2F
:1008E000031208E680ACAB05AA0712097F7F017EE0
:1008F0000012093BEA1392001209AFEAA2E192004A
:100900001209B4EB13920012099BEBA2E1920012C0
:1009100009A0A2E292001209A5A2E392001209AA7C
:100920007F017E0012093BD20012098812097F7FE5
:10093000027E0012093BD200020988AC0BAD0C12FA
:10094000096DE4FDFCD3ED9FEE6480F8EC648098C3
:1009500050070DBD00010C80EC2285A70A120994F6
:100960001209BE12098D1209C2850AA722EF8DF065
:10097000A4A8F0CF8CF0A428CE8DF0A42EFE227F68
:10098000027E0012093BC200A20092962275A720A7
:10099000759C1F22E4F5A775A54022A20092B12202
:1009A000A20092B222A20092B322A20092B422A28A
:1009B0000092A422A20092A522020B08CA0075A6EA
:0309C000302222C0
:00000001FF
