:020000040000FA
:03000000020800F3
:10080000787FE4F6D8FD7581200208470208E1E40C
:1008100093A3F8E493A34003F68001F208DFF48089
:1008200029E493A3F85407240CC8C333C4540F44D9
:1008300020C8834004F456800146F6DFE4800B01B3
:10084000020408102040809009B5E47E019360BC4A
:10085000A3FF543F30E509541FFEE493A360010E4B
:10086000CF54C025E060A840B8E493A3FAE493A372
:10087000F8E493A3C8C582C8CAC583CAF0A3C8C593
:1008800082C8CAC583CADFE9DEE780BEAB05AA0716
:100890001209737F017E0012092FEA1392001209D8
:1008A00081EAA2E1920012098AEB1392001209A1D7
:1008B000EBA2E192001209A6A2E292001209ABA2F9
:1008C000E392001209B07F017E0012092FD20012BC
:1008D000097C1209737F027E0012092FD2000209DF
:1008E0007C12094E43E34020821074E82509F50983
:1008F00074033508F508C294801120830E741825FE
:1009000009F50974FC3508F508C295E4FDFF1208E5
:100910008C7D017F0312088C7D027F0112088C7D83
:10092000027F0212088C7D017F0312088C80B8AC14
:1009300008AD09120961E4FDFCD3ED9FEE6480F877
:10094000EC64809850070DBD00010C80EC2285A757
:100950000A12099A1209BA1209931209BE850AA746
:1009600022EF8DF0A4A8F0CF8CF0A428CE8DF0A4B7
:100970002EFE227F027E0012092FC200A200929654
:1009800022A20092A4A200929422A20092A5A20008
:1009900092952275A720759C1E22E4F5A775A540A7
:1009A00022A20092B122A20092B222A20092B3220D
:0F09B000A20092B422020808CA0075A6302222C3
:00000001FF
