:020000040000FA
:03000000020800F3
:10080000787FE4F6D8FD75810902084702088CE478
:1008100093A3F8E493A34003F68001F208DFF48089
:1008200029E493A3F85407240CC8C333C4540F44D9
:1008300020C8834004F456800146F6DFE4800B01B3
:10084000020408102040809008ECE47E019360BC14
:10085000A3FF543F30E509541FFEE493A360010E4B
:10086000CF54C025E060A840B8E493A3FAE493A372
:10087000F8E493A3C8C582C8CAC583CAF0A3C8C593
:1008800082C8CAC583CADFE9DEE780BE43E340C24F
:1008900094C295C296D294D295D29620821074E8D2
:1008A0002509F50974033508F508C29480112083E1
:1008B0000E74182509F50974FC3508F508C295125F
:1008C00008D2D294D295D2961208D2C2961208D2E9
:1008D00080C3E4FFFED3EF9509E5086480F8EE6479
:1008E000809850070FBF00010E80EA220208119481
:0108F0000007
:00000001FF
